:10000000B7EF5AF0F29A1200046ED8CF05F0E0CFA5
:1000100006F00001E9CF0CF0EACF07F0E1CF08F0DD
:10002000E2CF09F0D9CF0AF0DACF0BF0F3CF12F01C
:10003000F4CF13F0FACF14F0F5CF15F0F6CF16F099
:10004000F7CF17F000C00EF001C00FF002C010F0A3
:1000500003C011F09DA230EF00F09EB22BEF5AF0DA
:100060000EC000F00FC001F010C002F011C003F08C
:100070000CC0E9FF07C0EAFF078E08C0E1FF09C016
:10008000E2FF0AC0D9FF0BC0DAFF12C0F3FF13C0B2
:10009000F4FF14C0FAFF15C0F5FF16C0F6FF17C035
:1000A000F7FF045006C0E0FF05C0D8FF1000F76A54
:1000B000BE0FF66E000EF7220900F5501200FC602C
:1000C000DAF266B6BEE0FEF6EE3E9C7A9E8E009CAC
:1000D000380A1C6E2A1EE7CFF700F76AEA0FF66EA1
:1000E000000EF7220900F5501200FC60DAF266B645
:1000F000BEE0FEF6EE3E9C7A9E8E0000F76A0C0F84
:10010000F66E010EF7220900F550120019053F6145
:10011000CB6D450A030740054786B44A299E66C74A
:100120005D76AF653C4D8FAE67941D55016A026ADE
:10013000006A036A02016B5102E16A5118E0100E75
:100140006C6FD89068376937003603366B51035CA3
:1001500002E16A51005C07E36A51005ED8A0030621
:100160006B51035ED880013602366C2FEAD700014E
:10017000A6EF12F00E01F5A9FED7006A00AE6C964C
:1001800000BE6C86F5A9FED7006A00AE669600BE7A
:100190006686F5A9FED7006A00AE6C9800BE6C8832
:1001A000000112009D92120090989998909A999A45
:1001B0001200898692961A0E006E002EFED700005D
:1001C000909C999C1A0E006E002EFED700008F9412
:1001D00098941A0E006E002EFED700001200CADF9F
:1001E00011DFE0DFE1DFE5DF12000201716B715129
:1001F0001F0819E3036A71518A0F016E000E032272
:1002000003C073F2036A71512A0FE96E000E0320D6
:10021000EA6EEFCF74F273C2EAFF01C0E9FF74C265
:10022000EFFF712BE4D700011200200EF16F400E9A
:10023000F26F800EF36F100EF46F1200020168511E
:10024000AC0FD8B006EF0AF0540F000108EF0AF027
:10025000256A246A276A266A640EF56F080EF66F0F
:10026000070EF76F640EF86F070EF96F010EFA6F45
:10027000870EFB6F250EFC6FD8DF020106EF0AF038
:10028000256A246A276A010E266EF40EF56F860E23
:10029000F66F230EF76FB70EF86F370EF96F630E18
:1002A000FA6F330EFB6F890EFC6FBFDF020106EFA2
:1002B0000AF0256A246A276A020E266E890EF56FF7
:1002C000420EF66FC30EF76F7C0EF86F540EF96F87
:1002D000FB0EFA6F130EFB6F680EFC6FA6DF0201B8
:1002E00006EF0AF0256A246A276A030E266E6C0E52
:1002F000F56FCE0EF66F390EF76F260EF86F4B0EB8
:10030000F96F330EFA6F990EFB6F120EFC6F8DDFD3
:10031000020106EF0AF0256A246A276A040E266E97
:10032000220EF56F660EF66F1C0EF76F700EF86FEB
:10033000FC0EF96F4B0EFA6F910EFB6F740EFC6F93
:1003400074DF020106EF0AF0256A246A276A050EA7
:10035000266E140EF56F0A0EF66F610EF76F820EA1
:10036000F86F0A0EF96F850EFA6F300EFB6F410EB3
:10037000FC6F5BDF020106EF0AF0256A246A276A38
:10038000060E266E4D0EF56FEF0EF66F690EF76FC7
:100390006F0EF86F0C0EF96F6F0EFA6F600EFB6F39
:1003A0000C0EFC6F42DF020106EF0AF0256A246A98
:1003B000276A070E266E3050140AF56F2F509F0AD9
:1003C000F66F2E50770AF76F2E50B00AF86F2F5045
:1003D000A30AF96F30508E0AFA6F2E50550AFB6F40
:1003E0002E50E20AFC6F21DF020106EF0AF0256AB7
:1003F000246A276A080E266E480EF56F570EF66FB0
:10040000200EF76F330EF86F2F502E24F96F2EC089
:10041000FAF02FC0FBF030C0FCF007DF020106EF5E
:100420000AF0256A246A276A090E266E110EF56FF6
:10043000640EF66FDB0EF76F320EF86FE70EF96F92
:10044000D80EFA6F8A0EFB6F460EFC6FEEDE0201CD
:1004500006EF0AF0256A010E246E276A266A220E2C
:10046000F56F040EF66F910EF76F310EF86F220ED6
:10047000F96F040EFA6F710EFB6F340EFC6FD5DE50
:10048000020106EF0AF0256A010E246E276A266E25
:100490007F0EF56F060EF66F180EF76F7F0EF86F72
:1004A000F96B580EFA6FFB6FAA0EFC6FBEDE0201ED
:1004B00006EF0AF0256A010E246E276A020E266EE8
:1004C0004D0EF56F410EF66F470EF76F4E0EF86F3B
:1004D000640EF96F790EFA6F6E0EFB6F650EFC6F8E
:1004E000A4DE020106EF0AF0256A010E246E276AD7
:1004F000030E266E660EF56FB40EF66F460EF76F9E
:10050000B90EF86F800EF96FAC0EFA6F750EFB6FB7
:100510002B0EFC6F8ADE020106EF0AF0000185DE79
:10052000020106EF0AF0256A010E246E276A040E06
:10053000266E780EF56F940EF66F180EF76FA90EF3
:10054000F86F940EF96F250EFA6F330EFB6F120ED3
:10055000FC6F6BDE020106EF0AF0256A010E246EC5
:10056000276A050E266E560EF56F340EF66F120EC4
:10057000F76F900EF86F780EF96F560EFA6F340E13
:10058000FB6F120EFC6F51DE020106EF0AF0256AC6
:10059000010E246E276A060E266E270EF56F460E94
:1005A000F66F330EF76F560EF86F500EF96F2C0E74
:1005B000FA6F730EFB6F670EFC6F200EF16F400E2B
:1005C000F26F900EF36F100EF46F020106EF0AF057
:1005D000256A010E246E276A070E266E280EF56F17
:1005E000470EF66F330EF76F560EF86F500EF96F19
:1005F0002C0EFA6F730EFB6F680EFC6F400EF16FDE
:10060000200EF26F800EF36F100EF46F020106EFF2
:100610000AF0256A010E246E276A080E266E290E3E
:10062000F56F370EF66F400EF76FBA0EF86F4B0E80
:10063000F96F290EFA6FC20EFB6F970EFC6FF5DD96
:10064000020106EF0AF0256A010E246E276A090EE0
:10065000266E220EF56F040EF66F910EF76F310EB7
:10066000F86F220EF96F040EFA6F710EFB6F340EE5
:10067000FC6FDBDD020106EF0AF0256A020E246E34
:10068000276A266A7A0EF56F610EF66F570EF76FBE
:10069000640EF86F370EF96F720EFA6F520EFB6F21
:1006A000710EFC6FC2DD020106EF0AF0256A020E30
:1006B000246E276A010E266E650EF56F6E0EF66FBC
:1006C000790EF76F640EF86F4E0EF96F470EFA6FE2
:1006D000410EFB6F4D0EFC6FA8DD020106EF0AF024
:1006E000256A020E246E276A266EBA0EF56FA00EDA
:1006F000F66FC10EF76FA70EF86FB20EF96FE70E27
:10070000FA6FA50EFB6FD50EFC6F8FDD020106EFB1
:100710000AF0256A020E246E276A030E266E470E23
:10072000F56F880EF66F190EF76FEB0EF86FC20EAD
:10073000F96FDA0EFA6F610EFB6F190EFC6F400E47
:10074000F16F200EF26F800EF36F100EF46F020146
:1007500006EF0AF0256A020E246E276A040E266E42
:10076000470EF56F890EF66FD90EF76FE80EF86F2A
:10077000320EF96FDB0EFA6F660EFB6F110EFC6F17
:1007800054DD020106EF0AF0256A020E246E276A84
:10079000050E266E0C0EF56F380EF66F450EF76FD0
:1007A000C30EF86F9E0EF96F8F0EFA6F5B0EFB6F24
:1007B000940EFC6F3ADD020106EF0AF0256A020E84
:1007C000246E276A060E266E230EF56F120EF66F44
:1007D000940EF76F840EF86F350EF96FF40EFA6F02
:1007E000550EFB6F840EFC6F200EF16F800EF26FC2
:1007F000400EF36F100EF46F020106EF0AF0256A47
:10080000020E246E276A070E266E330EF56F120E47
:10081000F66F940EF76F840EF86F350EF96FF40EC5
:10082000FA6F550EFB6F840EFC6FFFDC020106EFC2
:100830000AF0256A020E246E276A080E266E370E0D
:10084000F56F560EF66F230EF76F460EF86F400EDB
:10085000F96F3C0EFA6F630EFB6F770EFC6FE5DCF1
:10086000020106EF0AF0256A020E246E276A090EBD
:10087000266E5D0EF56FF669790EF76F7F0EF86FD5
:100880001C0EF96F7F0EFA6F700EFB6F1C0EFC6F63
:10089000CCDC020106EF0AF0256A030E246E276AFB
:1008A000266A5D0EF56FFE0EF66F790EF76F7F0EFE
:1008B000F86F1C0EF96F7F0EFA6F700EFB6F1C0E37
:1008C000FC6FB3DC020106EF0AF0256A030E246E0A
:1008D000276A010E266EEE0EF56FCC0EF66FAA0E8D
:1008E000F76F3A0EF86FA30EF96FC40EFA6FF50E9C
:1008F000FB6FE60EFC6F99DC020106EF0AF0256A39
:10090000030E246E276A020E266EEE0EF56FCC0ED5
:10091000F66FAA0EF76F3A0EF86FA30EF96FC40EBA
:10092000FA6FF40EFB6FE60EFC6F7FDC020106EF40
:100930000AF0256A030E246E276A266E680EF56F8C
:10094000840EF66F080EF76FB90EF86F840EF96F0C
:10095000350EFA6F230EFB6F020EFC6F66DC020190
:1009600006EF0AF0256A030E246E276A040E266E2F
:10097000130EF56F020EF66F200EF76F180EF86F5C
:10098000470EF96F140EFA6FFB6F450EFC6F4DDCCE
:10099000020106EF0AF0256A030E246E276A050E8F
:1009A000266E390EF56F270EF66F500EF76FAA0EF2
:1009B000F86F5B0EF96F390EFA6FD20EFB6F870E70
:1009C000FC6F33DC020106EF0AF0256A030E246E89
:1009D000276A060E266EF70EF56F060EF66F180ED6
:1009E000F76F7F0EF86FF96B580EFA6FFB6FAA0E58
:1009F000FC6F1BDC020106EF0AF0256A030E246E71
:100A0000276A070E266E5D0EF56FF669790EF76F91
:100A10007F0EF86F1C0EF96F7F0EFA6F700EFB6F72
:100A20001C0EFC6F02DC020106EF0AF0256A030EC1
:100A3000246E276A080E266EEE0EF56F7F0EF66F97
:100A4000660EF76F4C0EF86F530EF96F780EFA6F53
:100A5000B90EFB6FFC6915EC01F0020106EF0AF01C
:100A6000256A030E246E276A090E266EDB0EF56FCB
:100A7000410EF66FA80EF76F5E0EF86FF00EF96F6D
:100A8000990EFA6F980EFB6F530EFC6F200EF16FEC
:100A9000400EF26F800EF36F100EF46F020106EF3E
:100AA0000AF0256A040E246E276A266AF569F66B39
:100AB000F769590EF86F270EF96FBB0EFA6F350EF6
:100AC000FB6FAC0EFC6F15EC01F0020106EF0AF0B3
:100AD000256A040E246E276A010E266EB20EF56F8B
:100AE000BA0EF66FB80EF76FBE0EF86FBB0EF96F49
:100AF000FB0EFA6FFB6FAA0EFC6F15EC01F0020102
:100B000006EF0AF0256A040E246E276A020E266E8E
:100B1000B20EF56FBA0EF66FB80EF76FBE0EF86F25
:100B2000BB0EF96FBA0EFA6FAB0EFB6FB70EFC6F10
:100B300015EC01F0020106EF0AF0256A040E246E9E
:100B4000276A030E266EDF0EF56FAA0EF66F0A0EE9
:100B5000F76F960EF86F510EF96F400EFA6FF90E9F
:100B6000FB6FC10EFC6F15EC01F0020106EF0AF0FD
:100B7000256A040E246E276A266E140EF56F010E88
:100B8000F66F460EF76FCD0EF86F0F0EF96FF40E7D
:100B9000FA6FDC0EFB6FB40EFC6F15EC01F0020176
:100BA00006EF0AF0256A040E246E276A050E266EEB
:100BB000FA0EF56F260EF66F3F0EF76FA50EF86F63
:100BC0007B0EF96F500EFA6FA80EFB6F420EFC6F92
:100BD00015EC01F0020106EF0AF0256A040E246EFE
:100BE000276A060E266EC50EF56FF66FA40EF76F18
:100BF000C50EF86FC10EF96F570EFA6F680EFB6FD6
:100C00003E0EFC6F15EC01F0020106EF0AF0256ABA
:100C1000040E246E276A070E266EC50EF56F670E4A
:100C2000F66F6A0EF76F9B0EF86FFC0EF96F830E6E
:100C3000FA6F560EFB6F630EFC6F15EC01F00201AC
:100C400006EF0AF0256A040E246E276A080E266E47
:100C5000600EF56FCA0EF66FE10EF76F770EF86F44
:100C6000300EF96F970EFA6F5D0EFB6F7C0EFC6F06
:100C7000200EF16FF26F800EF36F400EF46F0201E1
:100C8000C5D3256A040E246E276A090E266EAC0EA3
:100C9000F56F110EF66F600EF76F270EF86F400EAE
:100CA000F96F710EFA6F360EFB6F590EFC6F15EC73
:100CB00001F00201ABD3256A050E246E276A266A6D
:100CC0007A0EF56FB80EF66F9B0EF76F960EF86FF3
:100CD000AA0EF96F4D0EFA6F1F0EFB6F3C0EFC6FE4
:100CE00015EC01F0020192D3256A050E246E276AE5
:100CF000010E266ED60EF56F9F0EF66FF30EF76F90
:100D0000EA0EF86FC80EF96F8D0EFA6FDC0EFB6FEE
:100D1000EB0EFC6F15EC01F0020178D3256A050E8D
:100D2000246E276A020E266E770EF56FB90EF66FE7
:100D3000E90EF76FD80EF86F020EF96FEB0EFA6F2F
:100D4000560EFB6F210EFC6F15EC01F002015ED315
:100D5000256A050E246E276A030E266E780EF56F3F
:100D6000550EF66F6C0EF76F620EF86FB20EF96FDC
:100D7000D40EFA6FF30EFB6FEE0EFC6F15EC01F064
:100D8000020144D3256A050E246E276A040E266EDE
:100D9000030EF56F120EF66F300EF76F080EF86F38
:100DA000570EF96F040EFA6FFB6F550EFC6F100EA5
:100DB000F16F200EF26F800EF36F400EF46F0201A0
:100DC00025D3256A050E246E276A266EFC0EF56F64
:100DD000840EF66F760EF76FB60EF86F8E0EF96F03
:100DE000BA0EFA6FFA0EFB6F940EFC6F15EC01F061
:100DF00002010CD3256A050E246E276A060E266EA4
:100E0000F90EF56F840EF66F620EF76F670EF86FCE
:100E1000B70EF96F5C0EFA6F360EFB6F540EFC6F57
:100E200015EC01F00201F2D2256A050E246E276A44
:100E3000070E266E1E0EF56FF10EF66F280EF76F79
:100E4000700EF86FA10EF96F120EFA6F3C0EFB6F69
:100E5000AD0EFC6F15EC01F00201D8D2256A050E2B
:100E6000246E276A080E266E750EF56FBB0EF66FA0
:100E7000EB0EF76FDA0EF86FF96BE90EFA6F540E9E
:100E8000FB6F230EFC6F15EC01F00201BFD2256A47
:100E9000050E246E276A090E266E720EF56FBC0EC3
:100EA000F66FEC0EF76FDD0EF86F070EF96FEE0EB2
:100EB000FA6F530EFB6F240EFC6F15EC01F002016C
:100EC000A5D2256A060E246E276A266A600EF56F83
:100ED000CA0EF66FE10EF76F770EF86F300EF96FEE
:100EE000970EFA6F5D0EFB6F7C0EFC6F15EC01F038
:100EF00002018CD2256A060E246E276A010E266E28
:100F0000730EF56FBD0EF66FED0EF76FDC0EF86F1A
:100F1000060EF96FEF0EFA6F520EFB6F250EFC6F87
:100F200015EC01F0020172D2256A060E246E276AC2
:100F3000020E266E700EF56FBE0EF66FEE0EF76F98
:100F4000DF0EF86F050EF96FEC0EFA6F510EFB6FA6
:100F5000260EFC6F15EC01F0020158D2256A060E30
:100F6000246E276A030E266E710EF56FBF0EF66FA4
:100F7000EF0EF76FDE0EF86F040EF96FED0EFA6FDD
:100F8000500EFB6F270EFC6F15EC01F002013ED2F4
:100F9000256A060E246E276A040E266E3050140A47
:100FA000F56F2F500A0AF66F2E50610AF76F2E5018
:100FB000820AF86F2F500A0AF96F3050850AFA6FCB
:100FC0002E50300AFB6F2E50410AFC6F15EC01F0D9
:100FD00002011CD2256A060E246E276A050E266EB3
:100FE0002EC0F5F02FC0F6F030C0F7F0590EF86FB4
:100FF000270EF96FBB0EFA6F350EFB6FAC0EFC6F50
:1010000015EC01F0020102D2256A060E246E276A51
:10101000266E2EC0F5F02FC0F6F030C0F7F0A50E0A
:10102000F86F5A0EF96F650EFA6F040EFB6F980E8B
:10103000FC6F15EC01F00201E9D1256A060E246E61
:10104000276A070E266E580EF56F470EF66F300EA4
:10105000F76F230EF86F2F502E24F96F2EC0FAF081
:101060002FC0FBF030C0FCF015EC01F00201CED136
:10107000256A060E246E276A080E266E3050FF0A77
:10108000F56F2F50190AF66F2E50170AF76F2E5072
:10109000190AF86F2F50490AF96F3050200AFA6F79
:1010A0002E50D50AFB6F2E50DA0AFC6F15EC01F0BA
:1010B0000201ACD1256A060E246E276A090E266E3F
:1010C0003150D50AF56F3050D50AF66F2F50D50A3A
:1010D000F76FF86BF96BFA6BFB6BFC6B02016B6BD8
:1010E000696B695117082DE3080E6A6F6A5327E090
:1010F000010E6A5D036AF50FE96E000E0320EA6EC9
:10110000EF50800B6C6F010E6A5D036AF50FE96E9C
:10111000000E0320EA6ED890EF34EF6E6B530BE0B5
:10112000010E6A5D036AF50FE96E000E0320EA6E98
:10113000EF500109EF6E6CC26BF26A07D7D7692BCB
:10114000D0D7000115EC01F0020160D1256A070E2D
:10115000246E276A266A340EF56F230EF66F920E00
:10116000F76F220EF86FF20EF96F950EFA6F410EBF
:10117000FB6FCB0EFC6F15EC01F0020147D1256A25
:10118000070E246E276A010E266E280EF56F470E95
:10119000F66F330EF76F560EF86F500EF96F2C0E78
:1011A000FA6F730EFB6F680EFC6F15EC01F0020115
:1011B0002DD1256A070E246E276A020E266E140EA4
:1011C000F56F0A0EF66F610EF76F820EF86F0A0E5A
:1011D000F96F850EFA6F300EFB6F410EFC6F15EC48
:1011E00001F0020113D1256A070E246E276A030E4F
:1011F000266EEF0EF56FCD0EF66FAB0EF76F890E04
:10120000F86F670EF96F450EFA6F230EFB6F010E34
:10121000FC6F15EC01F00201F9D0256A070E246E6F
:10122000276A040E266E010EF56FF10EF66F280E7A
:10123000F76F700EF86FA10EF96F120EFA6F3C0E79
:10124000FB6FAD0EFC6F15EC01F00201DFD0256ADB
:10125000070E246E276A050E266E2A0EF56F490EBC
:10126000F66F330EF76F560EF86F500EF96F2C0EA7
:10127000FA6F730EFB6F700EFC6F15EC01F002013C
:10128000C5D0256A070E246E276A060E266E550EF7
:10129000F56F040EF66FF76F570EF86F080EF96FC3
:1012A000300EFA6F120EFB6F010EFC6F15EC01F0A1
:1012B0000201ACD0256A070E246E276A266E010E45
:1012C000F56F120EF66F300EF76F080EF86F570EAF
:1012D000F96F040EFA6FFB6F550EFC6F15EC01F001
:1012E000020194D0256A070E246E276A080E266E26
:1012F000570EF56F120EF66FCB0EF76F670EF86F85
:10130000F90EF96FBC0EFA6F0E0EFB6FFA0EFC6F42
:1013100015EC01F002017AD0256A070E246E276AC7
:10132000090E266E770EF56F010EF66F190EF76F28
:10133000220EF86F760EF96F010EFA6F190EFB6F21
:10134000220EFC6F15EC01F0020160D0256A080E38
:10135000246E276A266A640EF56F700EF66F790E9A
:10136000F76F110EF86F710EF96F040EFA6F700EB1
:10137000FB6F800EFC6F15EC01F0020147D0256A6F
:10138000080E246E276A010E266E190EF56F070EE1
:10139000F66F800EF76F190EF86F070EF96F100ECB
:1013A000FA6F720EFB6F190EFC6F15EC01F0020163
:1013B0002DD0256A080E246E276A020E266EEF0EC7
:1013C000F56FCD0EF66FAB0EF76F890EF86F670EE7
:1013D000F96F450EFA6F230EFB6F010EFC6F15ECD3
:1013E00001F0020113D0256A080E246E276A030E4D
:1013F000266EF56BF66BF76BF86BF96BFA6BFB6BA4
:10140000FC6B15EC01F0020101D002010001120099
:10141000E824F76AF7362B0FF66E140EF7220A004F
:10142000F550FA6E0800F550F96E50028002B202D3
:10143000E402160348037A03AC03EE0322045404C7
:101440008604B404E80426055A058E05D005120664
:1014500046067A06AC06E006120754078807BC0762
:10146000FE07320866089808CA08FE0832096409AF
:101470009609CA09FA092C0A600AA20AD00A040BC2
:101480003A0B700BA40BDA0B0E0C440C820CB60C4E
:10149000E80C1C0D500D840DC20DF40D280E5C0ED1
:1014A0008E0EC20EF40E280F5C0F900FD40F081092
:1014B0003A107010B4104C117E11B211E6111A12CC
:1014C0004E128212B412E41218134C137E13B2138C
:1014D000E61302016B6B6B51030819E3036A6B514E
:1014E000070F016E010E032203C06DF2036A6B51F8
:1014F0008A0FE96E000E0320EA6EEFCF6EF26DC226
:10150000EAFF01C0E9FF6EC2EFFF6B2BE4D70001D9
:101510001200010E02016E6F420E6C6F6C5361E09F
:101520006E516E07036AE8BE0306F50FE96E000E02
:101530000320EA6EEFCF6DF26EAF02D0080E6E2779
:10154000080E6B6F6B534BE001010AAD0CD00AB370
:1015500005D03A0E0201706F04D001015C0E020149
:10156000706F0BD001010AB305D0740E0201706FC9
:1015700004D001012E0E0201706F010109A70DD0E8
:10158000020170396F6F0F0E6F176F177017703B76
:10159000F00E70176F517013010108A106D00201FF
:1015A00070377037FC0E7017010107A104D0D89076
:1015B00002017037010108510A1902016D19701BEF
:1015C00070BF02D0D89001D0D8800101073708370A
:1015D00009370A37D89002016D376B07B3D76C070C
:1015E0009DD70001120002016B6B6B51030819E3D8
:1015F000036A6B518A0F016E000E032203C06DF265
:10160000036A6B51070FE96E010E0320EA6EEFCFFC
:101610006EF26DC2EAFF01C0E9FF6EC2EFFF6B2BF5
:10162000E4D70001120055DF74DFDDDF120021C0B6
:1016300003F0205057EC00F00201716F0E01F5A984
:10164000FED771C200F000AE699200BE698200ACA4
:101650006F9200BC6F8200AA7B9200BA7B8200A8C6
:10166000759400B8758400A67B9400B67B8400A4B2
:10167000699400B4698400A26F9400B26F8423C09F
:1016800003F02250000157EC00F00201716F0E01CF
:10169000F5A9FED771C200F000AE689E00BE688E4C
:1016A00000AC6E9E00BC6E8E00AA7A9E00BA7A8E46
:1016B00000A8759000B8758000A67B9000B67B806E
:1016C00000A4699000B4698000A26F9000B26F809E
:1016D000F5A9FED7800EE8AE6A98E8BE6A8825C0F4
:1016E00003F02450000157EC00F00201716F0E016D
:1016F000F5A9FED771C200F000AE6A9C00BE6A8CEC
:1017000000AC709C00BC708C00AA7C9C00BA7C8CE5
:1017100000A8759800B8758800A67B9800B67B88ED
:1017200000A4699800B4698800A26F9800B26F881D
:1017300027C003F02650000157EC00F00201716F42
:101740000E01F5A9FED771C200F000AE6A9400BE8A
:101750006A8400AC709400BC708400AA7C9400BAC7
:101760007C8400A8769E00B8768E00A67C9E00B68B
:101770007C8E00A46A9E00B46A8E00A2709E00B2A5
:10178000708E00011200010EA96FA9C049F049C076
:1017900089F089C0EBF012000201716B71510708EA
:1017A00019E3036A71516A0F016E000E032203C030
:1017B00073F2036A71518A0FE96E000E0320EA6E1C
:1017C000EFCF74F273C2EAFF01C0E9FF74C2EFFF0A
:1017D000712BE4D7000112000201726B716B72531E
:1017E0002DE171511F082AE371512824736F725142
:1017F0002920746F2A0E7125E96E000E7221EA6E9F
:10180000EFCF75F2F250006EF29E74C263FF73C2A6
:1018100062FF75C261FF7F9C7F9E7F840F01550E22
:101820007E6EAA0E7E6E7F827FB2FED77F940050BE
:10183000F2120201712BD8B4722BD1D70001120021
:10184000216A0E0E206E236A226E256A246A276A98
:10185000266A0001EF51540808E1F05306E1F06BED
:10186000EF6B020EEB6F4FD0F5D7F5EC00F0EFC049
:1018700068F21EEC01F0D7DE8D51F00B0201686FAB
:1018800000019151F00B0201685D04E100018E51ED
:101890008C5D11E000018D51F00B0201686F0001B9
:1018A0009151F00B0201685D18E100018C53D8B42E
:1018B00002D0020112D0EFEC00F0B9DE64DFEFC01D
:1018C000A8F0A8C048F048C088F066DFF06BEF6B66
:1018D00083DF010EE66F17D016D000018D51F00B9B
:1018E0000201686F00019151F00B0201685D05E192
:1018F00000018E518C5D07E00201010E0001EF270F
:10190000000EF023A6D7120002016851F40FD8B0E0
:101910006BD10C0F0001F6EF0DF0256A090E246E55
:10192000276A266ABA0EF56FA00EF66FC10EF76F22
:10193000A70EF86FB20EF96FE70EFA6FA50EFB6FE8
:10194000D50EFC6F15EC01F002014ED1256A090E8F
:10195000246E276A010E266E470EF56F890EF66F0C
:10196000D90EF76FE80EF86F320EF96FDB0EFA6FD3
:10197000660EFB6F110EFC6F15EC01F0020134D105
:10198000256A090E246E276A020E266E3E0EF56F3A
:10199000AC0EF66FF50EF76FD00EF86FA10EF96F63
:1019A000610EFA6FD00EFB6F9C0EFC6F15EC01F010
:1019B00002011AD1256A090E246E276A030E266ECB
:1019C0007A0EF56F610EF66F570EF76F640EF86FB3
:1019D000370EF96F720EFA6F520EFB6F710EFC6FBD
:1019E00015EC01F0020100D1256A090E246E276A68
:1019F000040E266E0C0EF56F380EF66F450EF76F5F
:101A0000C30EF86F9E0EF96F8F0EFA6F5B0EFB6FB1
:101A1000940EFC6F15EC01F00201E6D0256A090E68
:101A2000246E276A050E266E470EF56F880EF66F38
:101A3000190EF76FEB0EF86FC20EF96FDA0EFA6F30
:101A4000610EFB6F190EFC6F400EF16F200EF26FEE
:101A5000800EF36F100EF46F0201C6D0256A090ED6
:101A6000246E276A060E266E190EF56F030EF66FAA
:101A7000730EF76F190EF86F010EF96F100EFA6FF3
:101A8000980EFB6F190EFC6F15EC01F00201ACD043
:101A9000256A090E246E276A070E266E420EF56F20
:101AA000480EF66F640EF76F820EF86F280EF96F0E
:101AB000680EFA6F300EFB6F010EFC6F15EC01F033
:101AC000020192D0256A090E246E276A080E266E3E
:101AD000EF0EF56FCD0EF66FAB0EF76F890EF86F48
:101AE000670EF96F450EFA6F230EFB6F010EFC6F48
:101AF00015EC01F0020178D0256A090E246E276AE0
:101B0000266E3150D50AF56F3050D50AF66F2F503A
:101B1000D50AF76FF86BF96BFA6BFB6BFC6B020184
:101B20006B6B696B695117082DE3080E6A6F6A5376
:101B300027E0010E6A5D036AF50FE96E000E0320CF
:101B4000EA6EEF50800B6C6F010E6A5D036AF50F51
:101B5000E96E000E0320EA6ED890EF34EF6E6B53FF
:101B60000BE0010E6A5D036AF50FE96E000E0320BB
:101B7000EA6EEF500109EF6E6CC26BF26A07D7D7BD
:101B8000692BD0D7000115EC01F002012DD0256A98
:101B9000090E246E276A0A0E266EEF0EF56FCD0E23
:101BA000F66FAB0EF76F890EF86F670EF96F450E83
:101BB000FA6F230EFB6F010EFC6F15EC01F00201B2
:101BC00013D0256A090E246E276A0B0E266EF56B5C
:101BD000F66BF76BF86BF96BFA6BFB6BFC6B15EC48
:101BE00001F0020101D0020100011200E824F76AAD
:101BF000F736070FF66E1C0EF7220A00F550FA6E44
:101C00000800F550F96E1A194C198019B419E81921
:101C10001C1A5C1A901AC41AF81A8E1BC21B8EC0AA
:101C200007F18FC008F190C009F191C00AF11200CC
:101C3000070E0201696F0001F2DF01010A510F0B6B
:101C400020090A6F000165DC0AC101F109C102F136
:101C500008C103F107C104F1E2DF01010A510F0BD2
:101C600060090A6F000155DC0AC1FDF009C1FEF0F0
:101C700008C1FFF007C100F10201686B6851070855
:101C80001AE3036A6851F50F016E000E032203C0C8
:101C90006BF2010E695D036AFD0FE96E000E032011
:101CA000EA6EEFCF6CF26BC2EAFF01C0E9FF6CC2D3
:101CB000EFFF682BE3D700011200020EA96FA9C045
:101CC00049F049C089F089C0EBF01200216A0E0E7C
:101CD000206E236A226E256A246A276A010E266E08
:101CE0000001EF510A0808E1F05306E1F06BEF6BD9
:101CF000030EEB6F4DD0F5D7F5EC00F0EFC068F2B6
:101D000003DE96DF90DC8D51F00B0201686F00015D
:101D10009151F00B0201685D04E100018E518C5D70
:101D200011E000018D51F00B0201686F000191512B
:101D3000F00B0201685D16E100018C53D8B402D0AB
:101D4000020110D0EFEC00F072DCB7DFEFC0A8F0BA
:101D5000A8C048F048C088F01FDD3EDD010EE66FE8
:101D600017D016D000018D51F00B0201686F0001F1
:101D70009151F00B0201685D05E100018E518C5D0F
:101D800007E00201010E0001EF27000EF023A8D7A3
:101D90001200929A899A929889980201726B716BDB
:101DA000725328E171511F0825E38A0E7125016ED7
:101DB000000E7221036E01C073F2746F2A0E71253A
:101DC000016E000E7221036E6A0E7125E96E000E1F
:101DD0007221EA6EEF68FF0E03C0EAFF01C0E9FF5F
:101DE000EF6E74C2EAFF73C2E9FFEF6E712BD8B4D5
:101DF000722BD6D7010E0001EB6FF06BEF6B0E016B
:101E0000F5A9FED7006A00AE6C9C00BE6C8CF5A9EB
:101E1000FED7006A00AE669C00BE668CF5A9FED7B0
:101E2000006A00AE6C9400BE6C84F5A9FED7006A0F
:101E300000AE669E00BE668E00011200020EEA6EC3
:101E4000710EE96EEF500EE0050E016E006A002E75
:101E5000FED7012EFBD72E0E006E002EFED700D02F
:101E6000EF2EF2D71200899692960F0E0201716F33
:101E70000001E4DF908C999C130E006E002EFED7BB
:101E800000D08F949894130E006E002EFED700D0D1
:101E9000120090989998908A999A12000E01F5A9CB
:101EA000FED7800EE8AE6C96E8BE6C86F5A9FED72C
:101EB000800EE8AE6696E8BE6686F5A9FED7800E6F
:101EC000E8AE6C98E8BE6C88000112000201786BE5
:101ED000776B7751070818E37651800B03E18E94F6
:101EE000979402D08E849794D8907637908E999E4E
:101EF000D8907837978685A601D07881909E999E54
:101F000000D000D0772BE5D778C201F00001120095
:101F1000909C999C73C276F2D9DF74C276F2D6DFB8
:101F200001C075F2908C999C020175C201F000010C
:101F300012000201718F71C273F272C274F2000159
:101F4000E7DF1200070E0201716F800E726F000151
:101F5000F0DF978285B2FDD71200060E0201716F85
:101F6000726B0001E6DF690E0201716F120E726F73
:101F70000001DFDF090E0201716F7F0E726F000139
:101F8000D8DF0A0E0201716F360E726F0001D1DFC9
:101F9000730E0201716F726B0001CBDF740E0201D0
:101FA000716F726B0001C5DF750E0201716F530E08
:101FB000726F0001BEDF760E0201716F620E726FEA
:101FC0000001B7DF770E0201716F780E726F0001AA
:101FD000B0DF790E0201716F726B0001AADF12008F
:101FE0006D0E0201716F1F0E726F0001A2DF6E0E87
:101FF0000201716F7A0E726F00019BDF6F0E02019A
:10200000716FE10E726F000194DF700E0201716F4B
:102010002C0E726F00018DDF710E0201716F010EC7
:10202000726F000186DF720E0201716F200E726FF7
:1020300000017FDF1C0E0201716F1E0E726F000126
:1020400078DF1D0E0201716F580E726F000171DF93
:102050001E0E0201716F0A0E726F00016ADF1F0E01
:102060000201716F030E726F000163DF200E020127
:10207000716F530E726F00015CDF210E0201716FF0
:10208000010E726F000155DF220E0201716F700E9A
:10209000726F00014EDF230E0201716F726B00013F
:1020A00048DF240E0201716F010E726F000141DFE3
:1020B000250E0201716F726B00013BDF2C0E0201D5
:1020C000716F120E726F000134DF2D0E0201716FFD
:1020D000EF0E726F00012DDF2E0E0201716F4F0E99
:1020E000726F000126DF690E0201716F780E726F48
:1020F00000011FDF7A0E0201716F726B000119DFA0
:10210000080E0201716F100E726F000112DF0B0ECC
:102110000201716FD40E726F00010BDF0D0E020110
:10212000716F100E726F000104DF1200070E0201C2
:10213000716F040E726F0001FCDE120003DF0DDF11
:102140000A0E0201716F060E726F0001F2DE48DFA7
:10215000EDDF1200060E0201716F726B0001E9DE05
:10216000690E0201716F120E726F0001E2DE090E3C
:102170000201716F7F0E726F0001DBDE0A0E020139
:10218000716F360E726F0001D4DE730E0201716F33
:10219000726B0001CEDE740E0201716F726B000172
:1021A000C8DE750E0201716F470E726F0001C1DE4D
:1021B000760E0201716F7D0E726F0001BADE770E2E
:1021C0000201716F726B0001B4DE790E0201716F52
:1021D000726B0001AEDE1200B5DEBCDF0A0E02013A
:1021E000716F060E726F0001A4DEFADE9FDF12002F
:1021F0006D0E0201716F1F0E726F00019ADE6E0E7E
:102200000201716F140E726F000193DE6F0E0201F6
:10221000716F7B0E726F00018CDE700E0201716FA8
:102220000C0E726F000185DE710E0201716F020EDD
:10223000726F00017EDE720E0201716F020E726F0C
:10224000000177DE560E0201716F400E726F0001C1
:1022500070DE1C0E0201716F1E0E726F000169DECE
:102260001D0E0201716F580E726F000162DE1E0EAC
:102270000201716F1A0E726F00015BDE1F0E020108
:10228000716F030E726F000154DE200E0201716F38
:10229000680E726F00014DDE210E0201716F010E9A
:1022A000726F000146DE220E0201716F3A0E726FEC
:1022B00000013FDE230E0201716F920E726F00016A
:1022C00038DE240E0201716F726B000132DE250EC2
:1022D0000201716FCB0E726F00012BDE690E0201DD
:1022E000716F600E726F000124DE2A0E0201716FA1
:1022F000610E726F00011DDE7A0E0201716F030E16
:10230000726F000116DE560E0201716F400E726F81
:1023100000010FDE0B0E0201716FD40E726F00010F
:1023200008DE0D0E0201716F100E726F000101DEEA
:10233000120008DE12DE0A0E0201716F300E726F9B
:102340000001F7DD55DFF2DE1200FCDD03DF0A0ECF
:102350000201716F300E726F0001EBDD49DFE6DEC6
:102360001200D59AD58CD66A800ED56EF28A860E6A
:10237000D56E12009D82180E0409CA6E010ECB6E36
:10238000120002EC00F0D2EC00F06DDD82DD86DDA3
:102390001E2C01D009D01E50030806E01E50040870
:1023A00003E01E50070808E10101165303E1000194
:1023B000C5DE02D0000110DF1E50020803E01E50EF
:1023C000050808E10101165303E10001B2DF02D064
:1023D0000001BBDF1E5063081EE1010119531AE121
:1023E0001A5318E117530DE118530BE10001A1DF57
:1023F0000B0E01011A6FB80E196F186B010E176FD3
:1024000009D000019BDE0B0E01011A6FB80E196F87
:10241000186B176B0001A5DFADDF12002B500F0BFF
:102420000201686F31500F0B685D14E1216A206A68
:10243000236A226A256A246A276A030E266E00012F
:10244000EFEC00F017EC0BF0ECEC0BF0010EE66F8C
:1024500004D0020100019DDC94DF120002016A6BCE
:102460006A515A0810E092928982C70E006E002EBF
:10247000FED700D092928992C70E006E002EFED732
:1024800000D06A2BEDD70001120092908980640E73
:102490000201716F0001D2DC92908990120001015B
:1024A0005951FC0FD8B009D1040F000160EF13F0AF
:1024B000EB51030803E1010100D1000186B403D010
:1024C0000101FBD00001010E0101596F5B6BF5D0DA
:1024D000988486A411D0E451000805E2FF0A08E1BF
:1024E000E351040805E3E45307E1E351050804E37D
:1024F0000101596BE2D00001988486B40ED0E453F8
:1025000008E1E3511A0805E3E45307E1E351050844
:1025100004E30101596BD1D00001988486A432D024
:10252000E45303E1E3511A082DE201015B51030872
:1025300002E3596BC2D0E4C069F2E3C068F2020161
:102540006B6B0A0E6A6F000196EF00F001C05AF142
:10255000020E0101596F656B0201666B6651080836
:102560000AE3036A66515C0FE96E010E0320EA6E0E
:10257000EF6A662BF3D7050E01011A6FDC0E196F97
:102580009CD0000101015B2B98D0988486A403D0D5
:10259000010193D00001D89001015A310001E453A8
:1025A00002E1E35D10E3D89001015A350201686F42
:1025B000D89001015A31020168250001E45303E17A
:1025C000E35D05E004E30101596B77D00001D89089
:1025D00001015A315A250001E4531FE1E35D1DE278
:1025E00001016531006E003200321F0E00160050EE
:1025F000036A5C0FE96E010E0320EA6E6551070B5A
:10260000016E010E006E015204E0D8900036012EDA
:10261000FCD70050EF10EF6E00010101652B6551F2
:10262000400802E1030E596F48D0EFEC00F00101C1
:10263000596B656B0201676B6751070819E3036A01
:1026400067512A0F016E000E032203C069F2036A6C
:1026500067515C0FE96E010E0320EA6EEFCF6AF25C
:1026600069C2EAFF01C0E9FF6AC2EFFF672BE4D746
:102670000B0E0001A76FA7C047F047C087F0010EFF
:10268000EB6FF06BEF6BEB2D02D020EC0CF0EB510D
:102690000208D8B466EC0EF0EB51030807E10F0E08
:1026A000A76FA7C047F047C087F0B8DEE65302E047
:1026B000D5DEEBDE010101D001010001F5EF34F0C0
:1026C000E824F76AF736DB0FF66E260EF7220A00CB
:1026D000F550FA6E0800F550F96EB024D0248A2522
:1026E0002A26460EF16F420EF26F230EF36F480E4C
:1026F000F46F120002016951DD0FD8B033EF17F00B
:10270000230F000136EF17F0256A246A276A266A2C
:10271000030EF56F120EF66F300EF76F080EF86F9E
:10272000570EF96F040EFA6FFB6F550EFC6F010127
:10273000052D0FD006530DE1460E0001F16FF26F2B
:10274000210EF36FC70EF46F0101066B020E056FC9
:102750008BD30551020810E106530EE1260E00014D
:10276000F16F120EF26F180EF36F270EF46F010166
:10277000066B010E056F78D3020175D3256A246AB2
:10278000276A010E266EDA0EF56F780EF66FFE0ED2
:10279000F76FF80EF86F9B0EF96FF80EFA6FF70EE1
:1027A000FB6F9B0EFC6F460EF16F260EF26F210E33
:1027B000F36F480EF46F020156D3256A246A276A24
:1027C000020E266EFC0EF56FED0EF66FCF0EF76F54
:1027D000F70EF86FA80EF96FFB0EFA6FFB6FAA0EDB
:1027E000FC6F0101052D10D006530EE1460E0001CD
:1027F000F16F220EF26F210EF36F480EF46F01019C
:10280000066B020E056F30D30551020810E1065326
:102810000EE1260E0001F16F130EF26F180EF36F2A
:10282000270EF46F0101066B010E056F1DD3020127
:102830001AD3256A246A276A030E266E2B0EF56FBB
:10284000750EF66FAC0EF76F800EF86FB90EF96F5C
:10285000460EFA6FB40EFB6F660EFC6F42DF02018C
:1028600002D3256A246A276A040E266EEF0EF56FDE
:10287000CD0EF66FAB0EF76F2A0EF86F3B0EF96FA9
:102880004D0EFA6F5E0EFB6F6F0EFC6F2ADF0201BA
:10289000EAD2256A246A276A050E266EB20EF56F03
:1028A000570EF66F770EF76F080EF86F9B0EF96FE5
:1028B000640EFA6FAA0EFB6F550EFC6F12DF020159
:1028C000D2D2256A246A276A060E266E250EF56F77
:1028D000870EF66F010EF76F070EF86F640EF96F33
:1028E000070EFA6F080EFB6F640EFC6FFADE020132
:1028F000BAD2256A246A276A070E266EF90EF56F8A
:10290000840EF66F620EF76F670EF86FB70EF96FF1
:102910005C0EFA6F360EFB6F540EFC6FE2DE0201A6
:10292000A2D2256A246A276A080E266EFC0EF56F6D
:10293000840EF66F760EF76FB60EF86F8E0EF96F87
:10294000BA0EFA6FFA0EFB6F940EFC6FCADE02012C
:102950008AD2256A246A276A090E266EFE0EF56F52
:10296000DC0EF66FBA0EF76F2A0EF86FB30EF96F22
:10297000D40EFA6FE50EFB6FF50EFC6FB2DE0201AE
:1029800072D2256A010E246E276A266AFE0EF56F42
:10299000DC0EF66FBA0EF76F2A0EF86FB30EF96FF2
:1029A000D40EFA6FE50EFB6FF60EFC6F460EF16F5C
:1029B000220EF26F410EF36F180EF46F020153D224
:1029C000256A010E246E276A266EFE0EF56FDC0E58
:1029D000F66FBA0EF76F2A0EF86FB30EF96FD40EBA
:1029E000FA6FE50EFB6FF90EFC6F7BDE02013BD246
:1029F000256A010E246E276A020E266EEF0EF56F11
:102A0000CD0EF66FAB0EF76F890EF86F670EF96F8C
:102A1000450EFA6F230EFB6F010EFC6F62DE0201A2
:102A200022D2256A010E246E276A030E266E640EDA
:102A3000F56F080EF66F070EF76F640EF86F070E4E
:102A4000F96F010EFA6F870EFB6F250EFC6F49DEE2
:102A5000020109D2256A010E246E276A040E266E31
:102A6000280EF56F470EF66F330EF76F560EF86FA0
:102A7000500EF96F2C0EFA6F730EFB6F680EFC6F21
:102A800030DE0201F0D1256A010E246E276A050EA0
:102A9000266E270EF56F460EF66F330EF76F560E45
:102AA000F86F500EF96F2C0EFA6F730EFB6F670EF6
:102AB000FC6F17DE0201D7D1256A010E246E276A4A
:102AC000060E266E650EF56F6E0EF66F790EF76FB9
:102AD000640EF86F4E0EF96F470EFA6F410EFB6FE2
:102AE0004D0EFC6FFEDD0201BED1256A010E246E83
:102AF000276A070E266E560EF56F340EF66F120E0D
:102B0000F76F900EF86F780EF96F560EFA6F340E5D
:102B1000FB6F120EFC6FE5DD0201A5D1256A010EE7
:102B2000246E276A080E266EF40EF56F860EF66F79
:102B3000230EF76FB70EF86F370EF96F630EFA6F4B
:102B4000330EFB6F890EFC6FCCDD02018CD1256A40
:102B5000010E246E276A090E266E890EF56F420E4D
:102B6000F66FC30EF76F7C0EF86F540EF96FFB0E05
:102B7000FA6F130EFB6F680EFC6FB3DD020173D1A9
:102B8000256A020E246E276A266A6C0EF56FCE0E39
:102B9000F66F390EF76F260EF86F4B0EF96F330E86
:102BA000FA6F990EFB6F120EFC6F9BDD02015BD179
:102BB000256A020E246E276A010E266E220EF56F1C
:102BC000660EF66F1C0EF76F700EF86FFC0EF96F45
:102BD0004B0EFA6F910EFB6F740EFC6F82DD0201DB
:102BE00042D1256A020E246E276A266E290EF56FE1
:102BF000370EF66F400EF76FBA0EF86F4B0EF96F87
:102C0000290EFA6FC20EFB6F970EFC6F6ADD020190
:102C10002AD1256A020E246E276A030E266E140E30
:102C2000F56F0A0EF66F610EF76F820EF86F0A0EDF
:102C3000F96F850EFA6F300EFB6F410EFC6F51DDA0
:102C4000020111D1256A020E246E276A040E266E37
:102C50004D0EF56FEF0EF66F690EF76F6F0EF86F92
:102C60000C0EF96F6F0EFA6F600EFB6F0C0EFC6F9F
:102C700038DD0201F8D0256A020E246E276A050E9F
:102C8000266E580EF56F470EF66F300EF76F230E57
:102C9000F86FFE0EF96FFA69FB69FC6922DD02012B
:102CA000E2D0256A020E246E276A060E266E480EB2
:102CB000F56F570EF66F200EF76F330EF86FFE0E9E
:102CC000F96FFA69FB69FC690CDD0201CCD0256A59
:102CD000020E246E276A070E266E1E0EF56FF10E89
:102CE000F66F280EF76F700EF86FA10EF96F120EC7
:102CF000FA6F3C0EFB6FAD0EFC6F460EF16F220EAD
:102D0000F26F130EF36F420EF46F0201ACD0256A1E
:102D1000020E246E276A080E266E110EF56F640EE1
:102D2000F66FDB0EF76F320EF86FE70EF96FD80E05
:102D3000FA6F8A0EFB6F460EFC6FD3DC020193D054
:102D4000256A020E246E276A090E266E220EF56F82
:102D5000040EF66F910EF76F310EF86F220EF96FB9
:102D6000040EFA6F710EFB6F340EFC6FBADC0201B9
:102D70007AD0256A030E246E276A266AF70EF56F4D
:102D8000060EF66F180EF76F7F0EF86FF96B580E80
:102D9000FA6FFB6FAA0EFC6FA4DC020164D0256AF7
:102DA000030E246E276A010E266E4D0EF56F410E3E
:102DB000F66F470EF76F4E0EF86F640EF96F790ECF
:102DC000FA6F6E0EFB6F650EFC6F8BDC02014BD051
:102DD000256A030E246E276A020E266E4D0EF56FCD
:102DE000410EF66F470EF76F4E0EF86F640EF96FD7
:102DF000790EFA6F6E0EFB6F650EFC6F72DC0201CE
:102E000032D0256A030E246E276A266E660EF56F91
:102E1000B40EF66F460EF76FB90EF86F800EF96FAD
:102E2000AC0EFA6F750EFB6F2B0EFC6F5ADC0201B5
:102E30001AD0256A030E246E276A040E266E330EFE
:102E4000F56F180EF66F250EF76F470EF86FAF0E81
:102E5000F96F650EFA6F130EFB6F120EFC6F41DCFB
:102E6000020101D00201010100011200E824F76A09
:102E7000F736870FF66E2E0EF7220A00F550FA6E1F
:102E80000800F550F96E08277C27BA2732286228F7
:102E90009228C228F228222952298229C029F02901
:102EA000222A542A862AB82AEA2A1C2B4E2B802B47
:102EB000B02BE22B122C442C762CA22CCE2C0E2DD7
:102EC000402D722D9E2DD02D022E322E0E01F5A9F1
:102ED000FED7800EE8AE6C9CE8BE6C8C0001120040
:102EE0000E01F5A9FED7800EE8AE669CE8BE668CA2
:102EF000000112000E01F5A9FED7800EE8AE669E15
:102F0000E8BE668E000112000E01F5A9FED7800E04
:102F1000E8AE6C94E8BE6C8400011200216A0A0ECF
:102F2000206E236A140E226E256A246A276A266A96
:102F30000001EF51230808E1F05306E1F06BEF6B5D
:102F4000020EEB6F3ED0F5D7F5EC00F0EFC069F262
:102F50007AEC13F013EC0BF091518D5D27E18E515B
:102F60008C5D24E1EFEC00F017EC0BF0F151915D7A
:102F700003E1ACDFB5DF0AD0F251915D03E1A6DFDA
:102F8000B9DF04D0F351915DD8B4BEDFC3EC0BF0D0
:102F9000EFC0A8F0A8C048F048C088F0CCEC0BF017
:102FA000ECEC0BF0010EE66F0CD00BD091518D5D67
:102FB00003E18E518C5D05E0010EEF27000EF0233A
:102FC000B7D712008B518E1B8B518F1B8B51911BCE
:102FD0001200216A0A0E206E236A140E226E256AE0
:102FE000246A276A266A0001EF510B0808E1F053B2
:102FF00006E1C9EC0EF0C1EC11F03FD0F5D7F5ECCD
:1030000000F0E0DFEFC069F27AEC13F013EC0BF0A4
:1030100091518D5D27E18E518C5D24E1EFEC00F044
:1030200017EC0BF0F151915D03E150DF59DF0AD04D
:10303000F251915D03E14ADF5DDF04D0F351915D10
:10304000D8B462DF5DEC0EF0EFC0A8F0A8C048F085
:1030500048C088F0CCEC0BF0ECEC0BF0010EE66F06
:103060000CD00BD091518D5D03E18E518C5D05E04C
:10307000010EEF27000EF023B6D712009088999822
:10308000909A999A1200070E0201716F080E726FE2
:10309000000199EC0FF0120002016B6B6B510708F5
:1030A00019E3036A6B518A0F016E000E032203C0FD
:1030B0006DF2036A6B516A0FE96E000E0320EA6E2F
:1030C000EFCF6EF26DC2EAFF01C0E9FF6EC2EFFF03
:1030D0006B2BE4D70001120002016E6B420E6C6F85
:1030E0006C53D8B472D06E516E2B036AE8BE0306DF
:1030F000F50FE96E000E0320EA6EEFCF6DF26EBFA2
:1031000004D06E51070801E26E6B080E6B6F6B53B3
:103110005AE001010AAF0CD00AB505D03A0E0201FF
:10312000706F04D001015C0E0201706F0BD00101C1
:103130000AB505D0740E0201706F04D001012E0E85
:103140000201706F010109A90DD0020170396F6F82
:103150000F0E6F176F177017703BF00E70176F51CF
:103160007013010108A306D0020170377037FC0EFE
:103170007017010107A304D0D89002017037010134
:103180000201716B010109A103D00201718F0101DC
:10319000006A07B1008E00500201711B006A6DB118
:1031A000008E00507119701B70BF02D0D89001D0F2
:1031B000D88001010A33093308330733D89002015C
:1031C0006D336B07A4D76C078BD700011200020187
:1031D0006B6B6B511F0819E3036A6B512A0F016E69
:1031E000000E032203C06DF2036A6B518A0FE96E71
:1031F000000E0320EA6EEFCF6EF26DC2EAFF01C04F
:10320000E9FF6EC2EFFF6B2BE4D700011200040E42
:103210000201765F0AE3020EEA6E760EE96EEF5067
:1032200004E001D00000EF2EFDD7000112009798B6
:103230008E8872C275F20201752B7507D8B405D05D
:1032400076690001E4DF0201F8D771C276F200016D
:10325000DEDF97988E9874C275F20201752B7507A0
:10326000D8B405D076690001D2DF0201F8D773C265
:1032700076F20001CCDF1200010E02016E6F6C6B62
:103280006C51070850E36B6B6B5105080DE3030E9F
:10329000726FE80E716F030E746FE80E736F0001AA
:1032A000C6DF02016B2BF0D76F6B6F51070839E354
:1032B0006B6B6B51070833E3036A6F512A0FE96E9A
:1032C000000E0320EA6EEFCF70F2010E006E6B511C
:1032D000016E04E0D8900036012EFCD70050701526
:1032E0006D6FD8906E376E5302E1010E6E6F6D53A5
:1032F00009E1726BFA0E716F746B736F000197DFE7
:103300000BD00201010E726FF40E716F010E746F1B
:10331000F40E736F00018BDF02016B2BCAD76F2B8A
:10332000C4D76C2BADD70001120002EC00F0D2EC38
:1033300000F0BAEC00F0D4EC00F0D9EC00F0120090
:10334000F06B0A0EEF6F8A518B190201696F000151
:103350008A518C1902016A6F00018A518D19906F90
:103360008A518F198B6F8E518A1B69C28EF069C288
:103370008CF06AC28FF09051F00BB00804E09051CD
:10338000F00BA00829E102EC00F0D2EC00F076DEB0
:103390007ADE8AC06AF08BC06BF00C0EA76FA7C0F4
:1033A00047F047C087F05DEC0EF0EFC0A9F0A9C070
:1033B00049F049C089F070DE69EC0AF08DDEF3EC6B
:1033C0000AF000DE04DF040EEB6F56DFAEDF020E04
:1033D000EB6F010EE66F04D0030EEB6FC1EC11F042
:1033E00007EF1BF001016651FC0FD8B026D1040F86
:1033F000000120EF1BF0988486B403D001011DD199
:103400000001010E0101666F676B17D1E45303E100
:10341000E351240804E20101666B0FD10001E4537B
:1034200022E1E35119081FE3010167510308D8A005
:1034300002D0000118D0020E666F716B050E1A6F74
:10344000DC0E196F0201666B665108080AE3036A15
:103450006651680FE96E010E0320EA6EEF6A662B73
:10346000F3D70001BFD70101672BE7D0988486B45A
:1034700003D00101E2D00001E45303E1E3510B0862
:103480000AE2E45308E1E351140805E3010E0201E6
:10349000676F13D00001E45303E1E351030809E22D
:1034A000E45307E1E3510B0804E30201676B05D025
:1034B00000010101666BC1D0020167531DE00101EB
:1034C0007131006E003200321F0E00160050036A88
:1034D000680FE96E010E0320EA6E7151070B016E51
:1034E000010E006E015204E0D8900036012EFCD788
:1034F0000050EF10EF6E02010101712B7151400875
:1035000002E1030E666F99D0905306E08F5304E0FA
:103510008E5302E08D5303E101018FD00001EFECE7
:1035200000F00101666B716B0201686B685107085E
:1035300019E3036A68512A0F016E000E032203C0CB
:103540006AF2036A6851680FE96E010E0320EA6EA1
:10355000EFCF6BF26AC2EAFF01C0E9FF6BC2EFFF77
:10356000682BE4D70C0E0001A76FA7C047F047C037
:1035700087F0EB2D03D0F06BEF6BD0DCEB51020842
:1035800023E10201686B6851070819E3036A685177
:103590002A0F016E000E032203C06AF2036A68510B
:1035A000680FE96E010E0320EA6EEFCF6BF26AC27C
:1035B000EAFF01C0E9FF6BC2EFFF682BE4D700010F
:1035C000F06B0A0EEF6F05DDEB51030820E10201FD
:1035D000686B6851070819E3036A68518A0F016E26
:1035E000000E032203C06AF2036A6851680FE96E95
:1035F000010E0320EA6EEFCF6BF26AC2EAFF01C050
:10360000E9FF6BC2EFFF682BE4D7000199D6E653C0
:1036100005E02EEC12F045EC12F00CD04EEC0FF061
:10362000C1EC11F0C80E0201716F00011EEC0FF029
:10363000C1EC11F0010101D001010001F7EF34F0FC
:10364000E824F76AF7365B0FF66E360EF7220A00AB
:10365000F550FA6E0800F550F96EF6330C346C3400
:103660000835100EF16F200EF26F400EF36F800ED2
:10367000F46F120002016B51EA0FD8B042D2160F5C
:10368000000184EF1DF0256A246A276A266A960ED7
:10369000F56F150EF66F350EF76F270EF86FAB0E40
:1036A000F96F7A0EFA6F1A0EFB6FB50EFC6FD9DF49
:1036B000020127D2256A246A276A010E266E990E16
:1036C000F56FAE0EF66F170EF76F2A0EF86F9A0EA3
:1036D000F96F7D0EFA6F1D0EFB6F380EFC6FC1DFA8
:1036E00002010FD2256A246A276A020E266EAC0EEA
:1036F000F56F970EF66F150EF76F280EF86F7B0EAD
:10370000F96F970EFA6F360EFB6F1B0EFC6FA9DF79
:103710000201F7D1256A246A276A030E266EB90EC4
:10372000F56F190EF66F2B0EF76F390EF86F9A0EB4
:10373000F96F1E0EFA6FAF0EFB6F7E0EFC6F91DFFE
:103740000201DFD1256A246A276A040E266E950ECF
:10375000F56F790EF66F220EF76FA40EF86F340E28
:10376000F96FB90EFA6F190EFB6F350EFC6F79DF2A
:103770000201C7D1256A246A276A050E266E780ED3
:10378000F56F550EF66F6C0EF76F620EF86FB20E96
:10379000F96FD40EFA6FF30EFB6FEE0EFC6F0101A2
:1037A000052D10D006530EE1200E0001F16F400EE2
:1037B000F26F800EF36F100EF46F0101066B020EB4
:1037C000056FA0D1055102080EE106530CE1200E51
:1037D0000001F16FF26B800EF36F100EF46F0101B8
:1037E000066B010E056F02018CD1256A246A276AD7
:1037F000060E266E780EF56F940EF66F180EF76FA4
:10380000A90EF86F940EF96F250EFA6F330EFB6F49
:10381000120EFC6F26DF020174D1256A246A276A22
:10382000070E266E710EF56FBF0EF66FEF0EF76F77
:10383000DE0EF86F040EF96FED0EFA6F500EFB6F8F
:10384000270EFC6F15EC01F002015BD1256A246A9A
:10385000276A080E266E730EF56FBD0EF66FED0E1D
:10386000F76FDC0EF86F060EF96FEF0EFA6F520E5F
:10387000FB6F250EFC6F15EC01F0020142D1256AA9
:10388000246A276A090E266E1E0EF56FF10EF66F7A
:10389000280EF76F700EF86FA10EF96F120EFA6F07
:1038A0003C0EFB6FAD0EFC6F15EC01F0020129D14F
:1038B000256A010E246E276A266A770EF56FB90E07
:1038C000F66FE90EF76FD80EF86F020EF96FEB0E78
:1038D000FA6F560EFB6F210EFC6F15EC01F0020122
:1038E00010D1256A010E246E276A266E760EF56FBA
:1038F000BA0EF66FEA0EF76FDB0EF86F010EF96F76
:10390000EA0EFA6F550EFB6F220EFC6F15EC01F0FC
:103910000201F7D0256A010E246E276A020E266E78
:10392000750EF56FBB0EF66FEB0EF76FDA0EF86FD4
:10393000F96BE90EFA6F540EFB6F230EFC6F15EC5A
:1039400001F00201DED0256A010E246E276A030E03
:10395000266E720EF56FBC0EF66FEC0EF76FDD0E75
:10396000F86F070EF96FEE0EFA6F530EFB6F240E11
:10397000FC6F15EC01F00201C4D0256A010E246E23
:10398000276A040E266E700EF56FBE0EF66FEE0EF1
:10399000F76FDF0EF86F050EF96FEC0EFA6F510E30
:1039A000FB6F260EFC6F15EC01F00201AAD0256A10
:1039B000010E246E276A050E266E650EF56F6E0EDB
:1039C000F66F790EF76F640EF86F4E0EF96F470EB3
:1039D000FA6F410EFB6F4D0EFC6F15EC01F002010A
:1039E00090D0256A010E246E276A060E266EF90E07
:1039F000F56F840EF66F620EF76F670EF86FB70EF5
:103A0000F96F5C0EFA6F360EFB6F540EFC6F15ECFF
:103A100001F0020176D0256A010E246E276A070E96
:103A2000266E270EF56F460EF66F330EF76F560EA5
:103A3000F86F500EF96F2C0EFA6F730EFB6F670E56
:103A4000FC6F15EC01F002015CD0256A010E246EBA
:103A5000276A080E266E280EF56F470EF66F330E96
:103A6000F76F560EF86F500EF96F2C0EFA6F730E3B
:103A7000FB6F680EFC6F15EC01F0020142D0256A65
:103A8000010E246E276A090E266EEF0EF56FCD0E1D
:103A9000F66FAB0EF76F890EF86F670EF96F450E74
:103AA000FA6F230EFB6F010EFC6FDBDD020129D0E4
:103AB000256A020E246E276A266AEF0EF56FCD0E78
:103AC000F66FAB0EF76F890EF86F670EF96F450E44
:103AD000FA6F320EFB6F010EFC6FC3DD020111D0D5
:103AE000256A010E246E276A266EF56BF66BF76B5E
:103AF000F86BF96BFA6BFB6BFC6BB3DD020101D069
:103B00000201010100011200E824F76AF736230FD1
:103B1000F66E3B0EF7220A00F550FA6E0800F550DB
:103B2000F96E8636B436E436143744377437EA37DC
:103B30001A384C387E38B038E238143946397A3978
:103B4000AE39E239163A4A3A7E3AB03AE03A0201E0
:103B50007039716FF00E71177039006E0F0E00160C
:103B600000507111016E0001120002017051010B31
:103B700004E0D8907033708F02D0D890703370C248
:103B800001F00001120002017051800B04E0D89096
:103B90007037708102D0D890703770C201F0000188
:103BA000120002016B51000A000109E0010A12E053
:103BB000030A2CE0010A45E0070A5FE075D08AC0DD
:103BC00070F2C5DF01C08AF08CC070F2C0DF01C0A6
:103BD0008CF06AD08A1F8BC06CF28CC08BF06CC2E8
:103BE0008CF08AC070F2C1DF01C08AF08BC070F225
:103BF000AEDF01C08BF08BC070F2C5DF01C08BF06F
:103C00008BC070F2C0DF01C08BF04ED08AC070F262
:103C1000BADF01C08AF08AC070F2B5DF01C08AF055
:103C20008CC06DF28DC08CF06DC28DF08BC070F2C7
:103C30008EDF01C08BF08BC070F297DF01C08BF07C
:103C400033D08AC070F283DF01C08AF08DC06EF27B
:103C50008BC08DF06EC28BF08B1F8BC070F293DF28
:103C600001C08BF08AC070F280DF01C08AF08AC088
:103C700070F27BDF01C08AF017D08B1F8DC06FF20E
:103C80008AC08DF06FC28AF08AC070F27CDF01C0FA
:103C90008AF08BC070F25BDF01C08BF08BC070F2DA
:103CA00072DF01C08BF000D01200216A110E206E6D
:103CB000236A0F0E226E256A246A276A266A00018B
:103CC000EF51160808E1F05306E1C9EC0EF0C1EC23
:103CD00011F0B3D0F5D7F5EC00F0EFC06BF2CADC11
:103CE000EF530AE1F05308E102016A6B6AC26BF21A
:103CF000000157DF5DEC0EF0EF2D0BD0F05309E122
:103D0000010E02016A6F6AC26BF200014ADF5DECCC
:103D10000EF0EF5102080BE1F05309E1020E02012F
:103D20006A6F6AC26BF200013CDF5DEC0EF0EF518E
:103D300003080BE1F05309E1030E02016A6F6AC246
:103D40006BF200012EDF5DEC0EF0EF5104080BE189
:103D5000F05309E1040E02016A6F6AC26BF20001BE
:103D600020DF5DEC0EF00201696B6951030819E375
:103D7000036A6951070F016E010E032203C06CF242
:103D8000036A69518A0FE96E000E0320EA6EEFCFD5
:103D90006DF26CC2EAFF01C0E9FF6DC2EFFF692B53
:103DA000E4D7000113EC0BF08D51100809E18D519F
:103DB000200806E18D51400803E18D51800803E0A1
:103DC0008E518C5D26E1EFEC00F017EC0BF0F15119
:103DD0008D5D05E166EC17F070EC17F00DD0F25137
:103DE0008D5D05E166EC17F07AEC17F005D0F35124
:103DF0008D5DD8B484EC17F0EFC0A8F0A8C048F0EF
:103E000048C088F0CCEC0BF0ECEC0BF0010EE66F48
:103E100014D08D51100809E08D51200806E08D5115
:103E2000400803E08D51800803E18E518C5D05E070
:103E3000010EEF27000EF02342D7120001014C5172
:103E4000FC0FD8B0EBD0040F000111EF20F0EB51C4
:103E5000030803E10101E2D00001988486B403D095
:103E60000101DCD00001010E01014C6F4D6B4E6B66
:103E7000D5D0988486A403D00101D0D00001E453AA
:103E800003E1E3510C080EE2E4530CE1E3511608A0
:103E900009E301014E53D8B402D0000103D04D2BE9
:103EA0002FD00001E45303E1E351410809E2E45358
:103EB00007E1E351530804E301014E2B21D0000137
:103EC00001014E5100081AE2020E4C6F5869050EAE
:103ED0001A6FDC0E196F0201666B665108080AE35F
:103EE000036A66514F0FE96E010E0320EA6EEF6A16
:103EF000662BF3D70001A2D704D001014C6B8ED002
:103F0000000101018BD0988486A403D0010186D0E2
:103F10000001E45303E1E35119080AE2E45308E124
:103F2000E351250805E3010E0201676F13D000017C
:103F3000E45303E1E3510D0809E2E45307E1E351DF
:103F4000190804E30201676B05D0000101014C6B05
:103F500065D00201988486B427D067531DE0010123
:103F60005831006E003200321F0E00160050036AF6
:103F70004F0FE96E010E0320EA6E5851070B016ED8
:103F8000010E006E015204E0D8900036012EFCD7DD
:103F90000050EF10EF6E02010101582B58514008FC
:103FA00002E1030E4C6F0201010138D0EFEC00F08A
:103FB00001014C6B586B0201686B6851070819E3EB
:103FC000036A68512A0F016E000E032203C06AF2D1
:103FD000036A68514F0FE96E010E0320EA6EEFCFBE
:103FE0006BF26AC2EAFF01C0E9FF6BC2EFFF682B08
:103FF000E4D70A0E0001A76FA7C047F047C087F0BB
:10400000F06BEF6B010EEB6F50DEE65304E02EEC2D
:1040100012F045EC12F0010101D001010001F9EFAD
:1040200034F0E824F76AF7363D0FF66E400EF722BB
:104030000A00F550FA6E0800F550F96E4E3E723ED9
:10404000063FAC3F01014BBF02D0D89001D0D880D1
:10405000EA6A4BC1E9FFEF36000112008D518C5D19
:104060002EE1475004080BE1216A050E206E236AF9
:10407000150E226E256A246A276A010E266E4750A5
:1040800005080BE1216A050E206E236A150E226ECB
:10409000256A246A276A020E266E010EEB6FEBC0BA
:1040A000A8F0EFEC00F0CCEC0BF0E7EC18F017EC1C
:1040B0000BF0ECEC0BF0010EE66F05D002D0020E17
:1040C000EB6FC1EC11F012000201696B6951050838
:1040D00073E06A6B00019051010B02016B6F6C6B16
:1040E0006AB16C8FD8900001903102016C1100010F
:1040F000906F6BC26AF28F51010B02016B6F6C6B98
:104100006AB16C8FD89000018F3102016C110001EF
:104110008F6F6BC26AF28E51010B02016B6F6C6B79
:104120006AB16C8FD89000018E3102016C110001D0
:104130008E6F6BC26AF28D51010B02016B6F6C6B5B
:104140006AB16C8FD89000018D3102016C110001B1
:104150008D6F6BC26AF28C51010B02016B6F6C6B3D
:104160006AB16C8FD89000018C3102016C11000192
:104170008C6F6BC26AF28B51010B02016B6F6C6B1F
:104180006AB16C8FD89000018B3102016C11000173
:104190008B6F6BC26AF28A51010B02016B6F6C6B01
:1041A0006AB16C8FD89000018A3102016C11000154
:1041B0008A6F0201692B8AD700017AEF25F08D51B1
:1041C000FF0A8C5DD8A47BD0475006080BE1216A1A
:1041D000050E206E236A150E226E256A246A276A50
:1041E000030E266E475007080BE1216A050E206E6C
:1041F000236A150E226E256A246A276A040E266E2B
:10420000EFEC00F017EC0BF0CCEC0BF0E7EC18F057
:104210006D51210814E06D51410811E06D516108A4
:104220000EE06D5181080BE06D51A10808E06D5161
:10423000C10805E06D51E10802E06D2D04D066EC87
:1042400017F070EC17F06D51220815E06D5142081F
:1042500012E06D5162080FE06D5182080CE06D5163
:10426000A20809E06D51C20806E06D51E20803E0C2
:104270006D51020804E166EC17F07AEC17F06D510D
:10428000140815E06D51340812E06D5154080FE028
:104290006D5154080CE06D51940809E06D51B4085B
:1042A00006E06D51D40803E06D51F408D8B484ECF5
:1042B00017F0ECEC0BF0010EE66F0BD00AD02EECF1
:1042C00012F02EEC12F02EEC12F0C9EC0EF0C1EC54
:1042D00011F0000112000201696B2A50800B6A6F15
:1042E0006B6B69BF6B81D8902A346B112A6E6AC2DE
:1042F00069F22B50800B6A6F6B6B69BF6B81D89032
:104300002B346B112B6E6AC269F22C50800B6A6FD2
:104310006B6B69BF6B81D8902C346B112C6E6AC2A9
:1043200069F22D50800B6A6F6B6B69BF6B81D890FF
:104330002D346B112D6E6AC269F22E50800B6A6F9C
:104340006B6B69BF6B81D8902E346B112E6E6AC275
:1043500069F22F50800B6A6F6B6B69BF6B81D890CD
:104360002F346B112F6E6AC269F23050800B6A6F66
:104370006B6B69BF6B81D89030346B11306E6AC241
:1043800069F23250800B6A6F6B6B69BF6B81D8909A
:1043900032346B11326E6AC269F2000112000201FE
:1043A0006E69692D02D02A0E6D6F6951020802E113
:1043B000070E6D6F6A6B6A5105081DE3036A6A5147
:1043C0008A0FE96E000E0320EA6EEFCF6CF26B6B82
:1043D0006B5107080EE36EC26FF2D8906E376F51C3
:1043E0006C19800B02E06D516E1BD8906C376B2BF3
:1043F000EFD76A2BE0D76EC2A9F06EC201F00001C0
:104400001200016603D0026602D007D0022A00C063
:10441000EEFF012EFCD7022EFAD71200EA6A6A0ECE
:10442000E96E006A026A070E016EEBDF8AC06AF06D
:104430008A510F0B02016B6F010E6C6F6C510508F6
:10444000D8A0A1D06D6B6D510308D8A07AD0692D8A
:104450000FD06B35006E0036FC0E001600506D2537
:10446000036AD50FE96E010E0320EA6EEFCF6AF200
:10447000695102080FE16B35006E0036FC0E001624
:1044800000506D25036A150FE96E020E0320EA6ED7
:10449000EFCF6AF2036A6C518A0FE96E000E0320B7
:1044A000EA6EEFCF6EF26A39006E0F0E001600C092
:1044B00001F0800E6F6F015204E0D8906F33012E2F
:1044C000FCD76E516F156F5D15E1036A6C516A0F71
:1044D000E96E000E0320EA6ED8906D35016E800EF5
:1044E000006E015204E0D8900032012EFCD700503B
:1044F000EF10EF6E6A510F0B016E800E6F6F01525D
:1045000004E0D8906F33012EFCD76E516F156F5DAC
:1045100016E1036A6C516A0FE96E000E0320EA6E21
:10452000D8906D35010F016E800E006E015204E0CF
:10453000D8900032012EFCD70050EF10EF6E6D2B9B
:1045400082D76B2B0F0E6B17036A6C516A0F016ECB
:10455000000E032203C071F203C0EAFF01C0E9FFAD
:10456000EFCF72F2010E6C5D036A8A0FE96E000EE6
:104570000320EA6EEF50721971C2EAFF01C0E9FF31
:10458000EF6E6C2B5BD700011200ECC069F207DF05
:10459000475008080BE1216A050E206E236A150EAC
:1045A000226E256A246A276A050E266E475009087E
:1045B0000BE1216A050E206E236A150E226E256A14
:1045C000246A276A060E266EEC2D25D09051A95D2F
:1045D00022E0475008080BE1216A050E206E236A8D
:1045E000150E226E256A246A276A070E266E47502A
:1045F00009080BE1216A050E206E236A150E226E52
:10460000256A246A276A080E266E020EEC6FC1EC3A
:1046100011F0A9697AD0EC5102080AE19051A95D24
:1046200007E0C9EC0EF0010EEC6FC1EC11F06DD09B
:104630009051A95DD8A464D0ECC069F2EFDEEFEC34
:1046400000F017EC0BF06D51210814E06D5141089A
:1046500011E06D5161080EE06D5181080BE06D5164
:10466000A10808E06D51C10805E06D51E10802E0C4
:104670006D2D04D066EC17F070EC17F06D51220828
:1046800015E06D51420812E06D5162080FE06D5166
:1046900082080CE06D51A20809E06D51C20806E0E5
:1046A0006D51E20803E06D51020804E166EC17F079
:1046B0007AEC17F06D51140815E06D51340812E0D2
:1046C0006D5154080FE06D5154080CE06D51940881
:1046D00009E06D51B40806E06D51D40803E06D5156
:1046E000F408D8B484EC17F0ECC0A8F0A8C048F0E7
:1046F000E7EC18F0ECEC0BF0010EE66F06D002D000
:10470000C9EC0EF0C1EC11F0000112000201696B5E
:1047100069510508D8B483D06A6B00019151010B2F
:1047200002016B6F6C6B6AB16C8FD8900001913194
:1047300002016C110001916F6BC26AF29051010B82
:1047400002016B6F6C6B6AB16C8FD8900001903175
:1047500002016C110001906F6BC26AF28F51010B64
:1047600002016B6F6C6B6AB16C8FD89000018F3156
:1047700002016C1100018F6F6BC26AF28E51010B46
:1047800002016B6F6C6B6AB16C8FD89000018E3137
:1047900002016C1100018E6F6BC26AF28D51010B28
:1047A00002016B6F6C6B6AB16C8FD89000018D3118
:1047B00002016C1100018D6F6BC26AF28C51010B0A
:1047C00002016B6F6C6B6AB16C8FD89000018C31F9
:1047D00002016C1100018C6F6BC26AF28B51010BEC
:1047E00002016B6F6C6B6AB16C8FD89000018B31DA
:1047F00002016C1100018B6F6BC26AF28A51010BCE
:1048000002016B6F6C6B6AB16C8FD89000018A31BA
:1048100002016C1100018A6F0201692B79D7000136
:104820008A6B8B6B8D51F00B10081CE08D51F00BD7
:10483000300818E08D51F00B500814E08D51F00B4A
:10484000700810E08D51F00B90080CE08D51F00BCA
:10485000B00808E08D51F00BD00804E08D51F00B4A
:10486000F00802E10A0E8D5F8D51F00B01098D6F8A
:104870008DC08CF08C1F8CEF26F001013F51FA0F98
:10488000D8B055D2060F000199EF26F0EB5103087E
:1048900003E101014CD2000186B403D0010147D2EB
:1048A0000001010E01013F6F406B416B40D2E453A8
:1048B00003E1E35111080EE2E4530CE1E3511F0858
:1048C00009E301014153D8B402D0000103D0402BC9
:1048D0002FD00001E45303E1E351270809E2E45338
:1048E00007E1E351340804E30101412B21D0000129
:1048F0000101415101081AE2020E3F6F4B6B0B0E92
:104900001A6FB80E196F0201666B665108080AE348
:10491000036A6651420FE96E010E0320EA6EEF6AE8
:10492000662BF3D70001A9D704D001013F6BFFD15B
:1049300000010101FCD186A403D00101F8D10001DE
:10494000E45303E1E3511B080AE2E45308E1E351B5
:10495000250805E3010E0201676F4BD00001E45307
:1049600003E1E351110808E2E45306E1E3511A08B8
:1049700003E30201676B3DD001014B51330810E1A5
:104980000001E45306E1E3512608D8A002D001015A
:1049900007D022EC20F0030E01013F6FC8D128D0D0
:1049A0004B51390810E10001E45306E1E3512608B8
:1049B000D8A002D0010107D022EC20F0040E0101A2
:1049C0003F6FB5D115D04B513F0810E10001E453C2
:1049D00006E1E3512608D8A002D0010107D022EC5D
:1049E00020F0050E01013F6FA2D102D03F6B9FD195
:1049F0000201675321E001014B31006E00320032A9
:104A00001F0E00160050FF0A070F036A420FE96EDF
:104A1000010E0320EA6E4B51070BFF0A080F016ECF
:104A2000010E006E015204E0D8900036012EFCD732
:104A30000050EF10EF6E020101014B2B78D1EFEC2B
:104A400000F001013F6B4B6B0201686B6851070876
:104A500029E3036A68512A0F016E000E032201C088
:104A600069F203C06AF2036A68518A0F016E000E90
:104A7000032203C06CF2036A6851420FE96E010E13
:104A80000320EA6EEFCF6DF26CC2EAFF01C0E9FFCE
:104A90006DC2EFFF6AC2EAFF69C2E9FF6DC2EFFFB4
:104AA000682BD4D70001EB2D11D01E2C07D0040E9B
:104AB000A76FA7C047F047C087F006D0050EA76FC5
:104AC000A7C047F047C087F02EEC20F0EB5102085A
:104AD00013E11E2C07D0060EA76FA7C047F047C0F2
:104AE00087F006D0070EA76FA7C047F047C087F032
:104AF00064EF20F0DFEC20F0E65304E02EEC12F03F
:104B000045EC12F0010113D1EFEC00F001013F6B15
:104B10004B6B0001EC2D58D00201686B68510708FF
:104B200019E3036A68512A0F016E000E032203C0C5
:104B30006AF2036A6851420FE96E010E0320EA6EC1
:104B4000EFCF6BF26AC2EAFF01C0E9FF6BC2EFFF71
:104B5000682BE4D700016BEC21F01E2C07D0080E67
:104B6000A76FA7C047F047C087F006D0090EA76F10
:104B7000A7C047F047C087F00201686B685106087C
:104B80001BE3060ED8806855036A8A0F016E000E7B
:104B9000032203C06AF2036A68512A0FE96E000E0D
:104BA0000320EA6EEFCF6BF26AC2EAFF01C0E9FFB1
:104BB0006BC2EFFF682BE2D7010E0001EC6FECC077
:104BC000A8F0A8C048F0E1DCEC51020858E102016D
:104BD000686B6851070819E3036A68512A0F016E70
:104BE000000E032203C06AF2036A6851420FE96EA5
:104BF000010E0320EA6EEFCF6BF26AC2EAFF01C03A
:104C0000E9FF6BC2EFFF682BE4D700016BEC21F0EA
:104C10001E2C07D0080EA76FA7C047F047C087F02B
:104C200006D0090EA76FA7C047F047C087F0020162
:104C3000686B685106081BE3060ED8806855036A46
:104C40008A0F016E000E032203C06AF2036A6851E4
:104C50002A0FE96E000E0320EA6EEFCF6BF26AC2F4
:104C6000EAFF01C0E9FF6BC2EFFF682BE2D7020E3B
:104C70000001EC6FECC0A8F0A8C048F086DCE65359
:104C800004E02EEC12F045EC12F0010150D0EFECF4
:104C900000F001013F6B4B6B0201686B6851070824
:104CA00029E3036A68512A0F016E000E032201C036
:104CB00069F203C06AF2036A68518A0F016E000E3E
:104CC000032203C06CF2036A6851420FE96E010EC1
:104CD0000320EA6EEFCF6DF26CC2EAFF01C0E9FF7C
:104CE0006DC2EFFF6AC2EAFF69C2E9FF6DC2EFFF62
:104CF000682BD4D71E2C08D0060E0001A76FA7C0C2
:104D000047F047C087F007D0070E0001A76FA7C084
:104D100047F047C087F0FAD4DFEC20F0E65304E018
:104D20002EEC12F045EC12F0010101D0010100015E
:104D30001200E824F76AF7364D0FF66E4D0EF72293
:104D40000A00F550FA6E0800F550F96E8C48AE482E
:104D500036493E4A084B8E4C216A0A0E206E236A61
:104D6000120E226E256A246A276A010E266EEFEC67
:104D700000F017EC0BF0EA6B3050020805E166EC2E
:104D800017F070EC17F006D0302C04D066EC17F05A
:104D90007AEC17F0010EE66FECEC0BF0120001015B
:104DA0003551FB0FD8B0BDD0050F000194EF27F0AF
:104DB00086B403D00101B5D00001010E0101356FA9
:104DC000B0D0E45303E1E3513D0819E2E45317E1A5
:104DD000E3514B0814E3020E0101356F3E6B0201F3
:104DE000666B665107080AE3036A6651360FE96E7F
:104DF000010E0320EA6EEF6A662BF3D70001010172
:104E000090D086A403D001018CD00001E45303E1CB
:104E1000E3511E080AE2E45308E1E3512B0805E3DD
:104E2000010E0201686F12D00001E45303E1E35167
:104E30000B0808E2E45306E1E351190803E3020119
:104E4000686B04D00101356B6CD0020168531DE022
:104E500001013E31006E003200321F0E001600507C
:104E6000036A360FE96E010E0320EA6E3E51070B0E
:104E7000016E010E006E015204E0D8900036012E42
:104E8000FCD70050EF10EF6E020101013E2B3E51A6
:104E9000400802E1030E356F44D086A403D001011F
:104EA00040D00001E45303E1E3513D0809E2E4533B
:104EB00007E1E3514B0804E3040E0101356F02D012
:104EC0000101356B2ED0EFEC00F00101356B3E6B2C
:104ED0000201676B6751070819E3036A67512A0FDC
:104EE000016E000E032203C06AF2036A6751360F97
:104EF000E96E010E0320EA6EEFCF6BF26AC2EAFFA1
:104F000001C0E9FF6BC2EFFF672BE4D7030E476ECA
:104F1000000122DFE653D8A42EEC12F0010101D0EB
:104F200001010001FDEF34F0E824F76AF736430F82
:104F3000F66E4F0EF7220A00F550FA6E0800F55093
:104F4000F96EB04DC24D024E9A4EC64EF5EC00F0D1
:104F500002016A6B00018E51400B03E102016A817C
:104F600000018E51800B03E102016A8300018F5121
:104F7000010B03E102016A8500018F51020B03E17D
:104F800002016A8700019051010B03E102016A8965
:104F900000019051020B03E102016A8B00018F5165
:104FA000400B03E102016A8D00018F51800B03E188
:104FB00002016A8F0001AA6B8EC0AAF0AA37AA3735
:104FC000FC0EAA178F51100B01E0AA818F51200B04
:104FD00001E0AA83AB6B91C0ABF0AB3BF00EAB171B
:104FE000AB178F51040B01E0AB858F51080B01E02B
:104FF000AB879051800B01E0AB839051400B01E0F7
:10500000AB81AC6B90C0ACF0AC37AC37FC0EAC17DE
:10501000F00EAC1791C0B0F0B03B0F0EB017B01748
:10502000B051AC138DC0ADF08BC0AEF08CC0AFF002
:105030000201706B705103082BE30001AD51800B2E
:10504000800804E1010E02016F6F02D002016F6B54
:10505000D8900001AD37AE51800B800802E1AD81E0
:1050600001D0AD91D890AE37AF51800B800802E1EE
:10507000AE8101D0AE91D890AF3702016F2D03D031
:105080000001AF8102D00001AF910201702BD2D795
:10509000706B6A51705D2BE20001AD51800B80088E
:1050A00004E1010E02016F6F02D002016F6BD89014
:1050B0000001AD37AE51800B800802E1AD8101D017
:1050C000AD91D890AE37AF51800B800802E1AE8130
:1050D00001D0AE91D890AF3702016F2D03D00001FF
:1050E000AF8102D00001AF910201702BD2D7000135
:1050F000AD51AA19B06FAE51AB19B16FAF51AC1928
:10510000B26F0201696B0001B151100B03E10201A2
:1051100069850001B151200B03E10201698700019B
:10512000B251800B03E1020169830001B251400BCF
:1051300003E1020169810001B151010B03E10201A8
:10514000698D0001B151020B03E10201698F000179
:10515000B251080B03E10201698B0001B251040B4B
:1051600003E1020169890001AA518A19B06FB16B8C
:1051700002016AC26BF26B1F6B376B37FC0E6B1749
:105180000001AB5102016B1BCC0E6B1769C26CF2B4
:105190006C1F6C376C37FC0E6C170001AB510201B1
:1051A0006C1B300E6C1769C26DF26D1F6D3B6D3359
:1051B0006D33030E6D170001AB5102016D1B030E21
:1051C0006D176B516C116D110001B16F02016AC254
:1051D0006BF26B1F6B336B333F0E6B170001AC51DF
:1051E00002016B1B330E6B1769C26CF26C1F6C3BB8
:1051F0006C376C37C00E6C170001AC5102016C1B90
:10520000C00E6C1769C26DF26D1F6D336D333F0EAA
:105210006D170001AC5102016D1B0C0E6D176B5127
:105220006C116D110001B26FB051AD190201716FB7
:105230000001B151AE19020171130001B251AF1951
:10524000020171116E6F6E531EE10001CCEC0BF088
:10525000EFEC00F0216A050E206E236A120E226E1A
:10526000256A246A276A010E266E020EA76FA7C060
:1052700047F047C087F017EC0BF0ECEC0BF0010E99
:10528000E66F08D002010001C9EC0EF0C1EC11F08C
:10529000C1EC11F0120001012851FC0FD8B0C7D0A9
:1052A000040F00011AEF2AF086B403D00101BFD029
:1052B0000001010E0101286F2A6BB9D086A403D02A
:1052C0000101B5D00001E45303E1E3512D0809E2E7
:1052D000E45307E1E351390804E301012A2B25D007
:1052E0000001E45303E1E351550820E2E4531EE1D9
:1052F000E35162081BE301012A513F0802E3286BD6
:1053000096D0020E286F346B0201686B6851080852
:105310000AE3036A68512B0FE96E010E0320EA6E5F
:10532000EF6A682BF3D7010182D0000101017FD021
:1053300086A403D001017BD00001E45303E1E351D3
:1053400013080AE2E45308E1E3511F0805E3010EE4
:105350000201666F0DD00001E45303E1E3512D0813
:1053600008E2E45306E1E351390803E30201666B06
:105370000001020166531FE001013431006E00326A
:1053800000321F0E00160050036A2B0FE96E010E4B
:105390000320EA6E3451070BFF0A080F016E010E5D
:1053A000006E015204E0D8900036012EFCD7005068
:1053B000EF10EF6E02010101342B3451400802E17D
:1053C000030E286F34D0EFEC00F00101286B346B32
:1053D0000201676B6751080819E3036A67512A0FD6
:1053E000016E000E032203C06AF2036A67512B0F9D
:1053F000E96E010E0320EA6EEFCF6BF26AC2EAFF9C
:1054000001C0E9FF6BC2EFFF672BE4D7020E00017A
:10541000A76FA7C047F047C087F098DDE65304E0C8
:105420002EEC12F045EC12F0010101D00101000157
:10543000FFEF34F0E824F76AF7364F0FF66E540E9C
:10544000F7220A00F550FA6E0800F550F96EA852DE
:10545000BC523053C653020169531FE0010126318B
:10546000006E003200321F0E00160050036A1D0F3E
:10547000E96E010E0320EA6E2651070BFF0A080FA2
:10548000016E010E006E015204E0D8900036012E2C
:10549000FCD70050EF10EF6E02010101262B2651C0
:1054A000480802E1040E1B6F00011200472C0CD0CB
:1054B000216A150E206E236A120E226E256A246A56
:1054C000276A010E266E0BD0216A150E206E236A04
:1054D000120E226E256A246A276A020E266EEFECEF
:1054E00000F017EC0BF02F500F0B010805E166ECF4
:1054F00017F070EC17F00FD02F500F0B020805E1DA
:1055000066EC17F07AEC17F006D02F500F0B02085C
:10551000D8B484EC17F0010EE66FECEC0BF012003F
:1055200001011B51FB0FD8B01ED1050F0001B5EFD3
:105530002BF086B403D0010116D10001010E010148
:105540001B6F266B1C6B0FD186B411D0E45303E1A3
:10555000E351170808E2E45306E1E351260803E3A8
:1055600001011C2B03D001011B6BFDD000010101C7
:105570001C516C0804E2020E1B6F266B276BF3D0E4
:1055800086A41FD0E45303E1E3513D081AE2E4533B
:1055900018E1E3515D0815E3030E01011B6F0201E1
:1055A000676B675108080AE3036A67511D0FE96ECC
:1055B000010E0320EA6EEF6A672BF3D70101D3D007
:1055C00000010101D0D00101275334E186A4CBD0E2
:1055D0000001E45303E1E351150812E2E45310E142
:1055E000E35129080DE3010E0101276F0201686BE9
:1055F00068C269F200012FDF0101B5D01BD00001A4
:10560000E45303E1E351090812E2E45310E1E351EA
:1056100014080DE3020E0101276F010E0201686FED
:1056200068C269F2000117DF01019DD003D00101BA
:105630001B6B99D0272D2ED086B495D00001E45352
:1056400003E1E351150812E2E45310E1E3512908A4
:105650000DE3010E0201686F68C269F20001FBDE12
:10566000020E0101276F7FD015D00001E45303E142
:10567000E351090810E2E4530EE1E35114080BE38F
:105680000201686B68C269F20001E5DE010E0101EA
:10569000276F69D000010101275102082EE186A47D
:1056A00062D00001E45303E1E351090812E2E4533C
:1056B00010E1E35114080DE3010E0201686F68C2A6
:1056C00069F20001C8DE020E0101276F4CD015D02F
:1056D0000001E45303E1E351150810E2E4530EE145
:1056E000E35129080BE30201686B68C269F200010B
:1056F000B2DE010E0101276F36D00001010133D067
:1057000001011B6B266B276B0201666B6651080853
:1057100019E3036A66512A0F016E000E032203C0CB
:105720006AF2036A66511D0FE96E010E0320EA6EEC
:10573000EFCF6BF26AC2EAFF01C0E9FF6BC2EFFF75
:10574000662BE4D7010E0001A76FA7C047F047C042
:1057500087F0ACDEE65304E02EEC12F045EC12F0DC
:10576000010101D0010100011200E824F76AF736B7
:10577000850FF66E570EF7220A00F550FA6E0800F4
:10578000F550F96E325548558055C65500570201FF
:1057900069531FE001017C31006E003200321F0EA0
:1057A00000160050036A740FE96E010E0320EA6EC2
:1057B0007C51070BFF0A080F016E010E006E0152AB
:1057C00004E0D8900036012EFCD70050EF10EF6EA9
:1057D000020101017C2B7C51380802E1050E726F39
:1057E000000112002D509F0821E1216A150E206E44
:1057F000236A120E226E256A246A276A010E266E1B
:10580000EFEC00F017EC0BF02E2C05D066EC17F047
:1058100070EC17F007D02E50020804E166EC17F088
:105820007AEC17F0010EE66FECEC0BF012000101C0
:105830007251FA0FD8B032D1060F000151EF2DF09E
:1058400086B403D001012AD10001010E0101726F5B
:105850007C6B736B23D186A403D001011FD100019F
:10586000E45303E1E3512A0808E2E45306E1E3517B
:10587000380803E30101732B0001010173515F0834
:1058800014E2020E726F0201686B685107080AE3A6
:10589000036A6851740FE96E010E0320EA6EEF6A25
:1058A000682BF3D701017C6B7D6BF8D086B403D0F5
:1058B0000101F4D00001E45303E1E351110811E2C6
:1058C000E4530FE1E3511F080CE3030E0101726F73
:1058D000020E7D6F010E0201666F66C269F2000161
:1058E00056DF0101DBD001017D5334E186A4D6D01F
:1058F0000001E45303E1E3511F0812E2E45310E115
:10590000E3513D080DE3010E01017D6F0201666B5D
:1059100066C269F200013BDF0101C0D01BD000016B
:10592000E45303E1E351120812E2E45310E1E351BE
:105930001E080DE3020E01017D6F010E0201666F6C
:1059400066C269F2000123DF0101A8D003D0010182
:10595000726BA4D07D2D2ED086B4A0D00001E4536C
:1059600003E1E3511F0812E2E45310E1E3513D0863
:105970000DE3010E0201666F66C269F2000107DFE6
:10598000020E01017D6F8AD015D00001E45303E1BE
:10599000E351120810E2E4530EE1E3511E080BE359
:1059A0000201666B66C269F20001F1DE010E0101BF
:1059B0007D6F74D0000101017D5102082EE186A4A3
:1059C0006DD00001E45303E1E351120812E2E45305
:1059D00010E1E3511E080DE3010E0201666F66C27D
:1059E00069F20001D4DE020E01017D6F57D015D09F
:1059F0000001E45303E1E3511F0810E2E4530EE118
:105A0000E3513D080BE30201666B66C269F20001D7
:105A1000BEDE010E01017D6F41D0000101013ED0CB
:105A200086B403D001013AD00001E45303E1E3510D
:105A3000380804E2050E0101726F02D00101726B99
:105A40002DD00101726B7C6B736B0201676B675128
:105A5000070819E3036A67512A0F016E000E03223B
:105A600003C06AF2036A6751740FE96E010E0320E6
:105A7000EA6EEFCF6BF26AC2EAFF01C0E9FF6BC2C8
:105A8000EFFF672BE4D71F0E476E0001ABDEE65336
:105A9000D8A42EEC12F0010101D00101000103EFA6
:105AA00035F0E824F76AF736BD0FF66E5A0EF72286
:105AB0000A00F550FA6E0800F550F96E4058565835
:105AC000AC58E658205A425A020169531FE00101BE
:105AD0008A31006E003200321F0E00160050036A39
